:1040000000800010D542040009430400D31E0400C0
:10401000D71E0400DB1E0400DF1E040000000000A9
:104020000000000000000000000000001343040036
:10403000E31E040000000000ADAB000019430400C3
:10404000A9B100005DAB000029A800009DA60000FA
:1040500025430400E71E0400EB1E0400EF1E0400CD
:10406000F31E04002F4304003143040033430400D3
:104070003543040037430400394304003B43040044
:104080003D4304003F430400414304004343040014
:104090004543040047430400494304004B430400E4
:1040A000299101004F43040051430400534304008D
:1040B000DD6E010057430400594304005B430400D4
:1040C0005D4304005F4304006143040010B5054CE8
:1040D000237833B9044B13B10448AFF300800123B4
:1040E000237010BD5802001000000000B409060043
:1040F00008B5064B1BB106480649AFF300800648D9
:10410000036813B1054B03B1984708BD00000000D8
:10411000B40906005C020010580200100000000004
:10412000024B1A6801321A60704700BF7402001017
:10413000014B1868704700BF740200107F2810B44C
:104140000ED981B90E4B01E0802915D033F8022F2A
:104150008CB2824201F10101F6D104F1800080B2FB
:104160005DF8044B7047FF2806D8064B803833F8BB
:1041700010005DF8044B704700205DF8044B704759
:104180001EFB040020FB040061280AD0074900221E
:1041900001E0834206D031F8023F0132002BF8D112
:1041A00070470022024B33F81200704740F90400B8
:1041B00020FC04001F2811D920380322824001FA74
:1041C00000F00E4BD3F8AC1121EA0202C3F8AC2187
:1041D000D3F8AC211043C3F8AC01704703228240EE
:1041E0008140064BD3F8A80120EA0202C3F8A821B7
:1041F000D3F8A8211143C3F8A811704700C00F409D
:1042000001290AD041B9094A094BD2F8C4100B4020
:1042100023EA0003C2F8C4307047044A044BD2F8C2
:10422000C41003400B43C2F8C430704700C00F40B5
:10423000DEF7EFEF042808D8064B53F8203023B1FF
:1042400022B91A6822EA0101196070471A681143FD
:104250001960704700FE0400042804D8024B53F88C
:10426000203003B19961704700FE0400042804D88F
:10427000024B53F8203003B1D961704700FE0400AF
:1042800030B4427803210F2A88BF103A4FEA420225
:1042900001FA02F18478037804FA02F24FEA430348
:1042A00088BF01339B0003F1804303F530331C6862
:1042B00024EA01011960196803240A431A6042784C
:1042C000C1780F2A88BF103A4FEA420204FA02F47A
:1042D00001FA02F10378154A4FEA430388BF01331C
:1042E00052F8235025EA040442F8234052F82340B0
:1042F000214342F8231002790378012A41780BD038
:1043000030BC012202FA01F1094A52F8230020EAE6
:10431000010142F8231070478A4030BC044850F82D
:1043200023100A4340F82320704700BF40C00240DA
:1043300068C0024038B50446F8B1012821D1214AAD
:10434000214B126889089508A3FB0505AD0C05FBF8
:1043500001F5FE2D24D85508A3FB0505AD0C05FB82
:1043600001F5FE2D25D8A3FB0205AD0C05FB01F5DB
:10437000FE2D4FF000000BD838BD21F00301FE29BF
:1043800001D8002038BD4FF080435960012038BD6E
:104390002146FFF70FFF4FF0804320465D6038BD98
:1043A00000200146FFF706FF4FF0804320465D6086
:1043B00038BD00200221FFF7FDFE4FF0804320466C
:1043C0005D6038BD9801001083DE1B4338B505469B
:1043D00000200C460146FFF7EDFE4FF080431A69BE
:1043E000012C22F003021A611A6945EA02051D61D7
:1043F00003D11A7842F002021A7038BD10B54FF09E
:1044000080442369014603F00300FFF793FF2378FC
:1044100043F00103237072B64FF08043AA21552266
:1044200019721A7262B610BD4FF080431A7802F00A
:10443000FB021A70704700BF72B64FF08043AA218A
:10444000552219721A7262B6704700BFF8B51E4E37
:10445000012303704370B36900251C491C4A837013
:10446000C570044613680868E3606060257465746D
:10447000A574E57425756575A575E575257665766C
:10448000A576E57680277169B2692581678104F197
:104490001C0046F0EAFAB2692946A0181C30C2F1A5
:1044A000100246F006FB2946402204F12C0046F09B
:1044B00000FB29463A4604F16C0046F0FAFA054B37
:1044C0001868C4F8EC00F8BD00000820CC0000100B
:1044D000940A001014FE04002DE9F041214E82B030
:1044E00034684FF035082046FFF7B0FF1E4B4FF001
:1044F000010C186ADD69C4F8F500986A03270423E3
:104500003621322284F8F08084F8F1C084F8F27009
:1045100084F8F31084F8F920C4F8FB0084F8F43030
:1045200084F8FA30E5B1284646F08DFE04F2011316
:10453000C7B24FF00C0E84F8000184F8FFE0294662
:104540003A46184646F091FAC4192146FF2301F86D
:10455000013B3068091A02B0BDE8F04101F0DEBB52
:10456000FF34F2E7900A00100000082070B51C4DDF
:104570002C682046FFF76AFF1A4B3520DA6937218D
:10458000012384F8F00084F8F31084F8F13084F803
:10459000F230C2B10426032006210C2284F8F53043
:1045A00084F8F46084F8F60084F8F71084F8F820B2
:1045B000F9342146FF2301F8013B2868BDE870402B
:1045C000091A01F0ABBB0322062184F8F53084F808
:1045D000F42084F8F62084F8F710F834E9E700BFF7
:1045E000900A0010000008202DE9F0412F4B1C68B4
:1045F0002378022B02D00020BDE8F081201D2C4939
:10460000042246F023FA06460028F4D1294D04F18D
:104610001C00AA69696946F019FA024610B13046D1
:10462000BDE8F081244904F1F003098820691944A8
:104630008B42A862144623D205F1240805F1200C10
:1046400005F1340705F130062C350DE0032A28D09A
:10465000062A22D0012A02D1D3F8020028605A7813
:104660000232134499420BD91A78332A10D0EDD96B
:10467000362A08D0FF2A03D0352AF0D19C78EEE7FD
:104680002046BDE8F081D3F80200CCF80000E6E750
:10469000D3F80200C8F80000E1E7D3F80200306068
:1046A000DDE7D3F802003860D9E700BF900A0010B8
:1046B000CC00001000000820AA0A001030B50D4CF4
:1046C00083B04FF6FF736061A161002501A84FF42C
:1046D0008641E261A570ADF80430ADF8063000F017
:1046E000B1FB606010B14FF48843838000232380C6
:1046F00003B030BD0000082070B57F4C2388B3F5AF
:104700009A7F00F0BC802FD940F24D12934200F006
:10471000A480B3F5A77F5BD340F25912934209D02E
:10472000B3F5B57F28D17548218A00F02FFA40F201
:1047300059132380724B1B789B0705D46F4800F0F8
:1047400033FA002800F0C2806B4D05F1080000F03C
:104750002BFA002800F0BC802B8AB3F57A7F40F258
:10476000BF8000232B8070BDB3F58E7F12D0B3F5D0
:10477000957F04D0002B77D00023238070BDA378D1
:10478000022B00F0B2805D48218A00F0FFF94FF45F
:104790008E7323805A4D2B789E0713D5564E06F103
:1047A000080000F001FA00286BD0338A41F26F72E2
:1047B00093429CBF5B003382FFF7D8FE4FF49573A2
:1047C000238070BD4D4800F0EFF90028E6D170BDA0
:1047D00040F243129342CFD1A378032B25D0484D0A
:1047E0004648218A00F0D2F94FF49A7323802B783F
:1047F000990704D4414800F0D7F9002867D03E4E0D
:1048000006F1080000F0D0F930B1338AB3F57A7FB1
:1048100048D90023338070BD2B789A0746D5FFF71F
:10482000E3FE052842D10323B370334812F056FE4D
:10483000606A00BA41F0BCFD0022324B41F02EFE0E
:10484000314B002241F02AFE42F0EAF801462B48A3
:1048500000F09CF940F24D132380274D05F108002C
:1048600000F0A2F930BB70BD284B01201A6864210A
:1048700002441A60A0702182FFF778FE83E7204D82
:10488000B5E72B78980799D5FFF7AEFE022895D1AA
:10489000B0701E4B64211A68218201321A60FFF742
:1048A0001BFE9DE764333382FFF716FE40F243138D
:1048B000238070BD164812F09BFD144B64211A68CA
:1048C000298201321A60FFF707FE2CE770BD70BD28
:1048D000FFF78AFE05280AD04FF4B573238070BD18
:1048E00064332B82FFF7F8FDF6E7054DD1E7094861
:1048F00012F07EFD9CE700BF0000082008000820A1
:10490000A80A00100000E03F00005940CC00001051
:1049100018FE04002CFE0400034B9B7813B9034AD5
:1049200013805380704700BF00000820940A0010D5
:1049300010B590F820300446062B0ED00B4A238A7F
:1049400012686068518A8B4298BF194601F0E6F9F7
:10495000062384F82030012010BD054B1B7803F09E
:10496000040303F0FF00002BE8D110BD880A0010FB
:10497000A80A001090F82030062B01D000207047C4
:10498000104B1B7813F0010319D00F4A038A1268E9
:10499000528A934209D8426800211344436001239C
:1049A000018280F820301846704741689B1A0382C4
:1049B0000A440123426080F82030184670471846A8
:1049C000704700BFA80A0010880A0010024B187830
:1049D000C0F34000704700BFA80A001038B54388F4
:1049E0000446A3B1D52B0ED12046FFF7C3FF0546E1
:1049F0002046FFF79DFF284010F0FF0006D0228AD6
:104A00006AB984F8202000236380022038BD4AB1AF
:104A100092B20282416080F82030002AF1D0D52382
:104A20006380E1E74280012038BD00BFF8B54588CA
:104A300004460E4617462DB1F42D14D00023638092
:104A40000220F8BD01B310468847114B20821B6835
:104A500084F8205063600F4B1B785B0701D5384604
:104A6000B047F42363802046FFF784FF05462046C5
:104A7000FFF75EFF284010F0FF00E2D0238A002BF2
:104A8000E9D184F82030D9E761800120F8BD00BF6A
:104A9000900A0010A80A0010C269038BD01A80B2D5
:104AA000704700BF70B5438882B00446002B2FD0FA
:104AB00040F22112934226D1438A002B32D02B4A56
:104AC0002B4B12681B880220A260638284F82000AE
:104AD000228B002A37D013B3A2686369107818704C
:104AE000638A228BA6686569013B013A9BB292B248
:104AF00001360135814263822283A6606561E8D177
:104B0000A38B93422DD000236380022002B070BD9E
:104B1000808BE268638A20836261002BD8D140F2E7
:104B20002113638094F82030022B06D00191FFF707
:104B30004DFF01990028E9D0C1E70323002084F844
:104B4000203002B070BD002BE9D0A06810F8015BE6
:104B5000013B9BB2A9426382A060D1D0002BF5D16A
:104B6000DDE7002084F820006080CFE7900A001085
:104B7000AA0A00100023C1604161C261028380F86B
:104B80002030438203804380704700BF10B54160EE
:104B90000446FFF7CDFA206010BD00BF90E80C007E
:104BA00013440360704700BF10B50446FFF7C0FA16
:104BB00094E80C00801A984234BF0020012010BDF8
:104BC0002DE9F041334CE37D062B03D0BDE8F041E5
:104BD00012F0CCBD304D2B88B3F5C17FF6D3363BF8
:104BE0009BB25F08B3EB470F07F128034FF00006B5
:104BF0004FEA1322CCBF07F10108B84622742B807C
:104C0000637484F8326084F8336000F0E7F8C043DE
:104C100060862676667600F0D1F82B88C0430E3386
:104C200020832B8012F0A2FD1C4A08F12803106893
:104C30009BB24FEA132E4246C11984F810E02B8034
:104C4000637445F012FF3946154800F075F8154BAE
:104C500084F8326059789A781878DB7884F82710CD
:104C600084F8293084F8282084F8336084F82600FA
:104C700000F0B4F8C04360862676667600F09EF8B1
:104C80002B88C0430E3320832B80BDE8F04112F007
:104C90006DBD00BF38000820AA0A0010900A00105D
:104CA0005E000820A40A0010013A30B48D18A94211
:104CB00014D20B461C785A78023302EB042292B2CB
:104CC000104480B2824284BF013080B29D42F1D84C
:104CD000CB432B4423F0010302331944A94201D0F2
:104CE00030BC70470B7830BC1B02184480B2834242
:104CF00084BF013080B2704738B50E4C0822637C07
:104D0000257C04F11A0103EB0525ADB2A5F10E00D7
:104D100080B2FFF7C9FFA5F1140292B204F122019B
:104D2000FFF7C2FF10B94FF6FF7038BD40BA80B22E
:104D300038BD00BF3800082070B4C478134B0C4451
:104D4000E4B2DC7082780D0A2A44D2B29A704678B6
:104D500095425E700078187003D90136F6B25E7025
:104D60008EB1C9B28C420CDA0132D2B29A70074BC2
:104D70003AB95A780132D2B25A7012B91A7801325D
:104D80001A7070BC704701301870EAE7A40A00106E
:104D900010B5084C014620680830FFF7CDFF064AE1
:104DA0002368507814789178D2781C72587299726E
:104DB000DA7210BD880A0010A40A001008B500209D
:104DC00005491422FFF770FF10B94FF6FF7008BDB8
:104DD00040BA80B208BD00BF46000820FFF78CBF74
:104DE00030B4154B15490022154C04204FF4806552
:104DF00083F8B92183F8D92183F8F92183F819229E
:104E000083F8392283F8592208702580A3F8942169
:104E1000A3F89621A3F89821A3F89A21A3F89C213E
:104E2000A3F89E21A3F86422A3F8A822A3F8EC22F9
:104E3000A3F8302330BC7047380008208C020010E3
:104E4000800200102DE9F0012A4C2B4EB4F8645278
:104E50003288B4F8A872B4F8ECC2B4F830830132E6
:104E600092B2B2F5FA4F1ED34FF480521023AB42E8
:104E7000F5D0BB42F3D06345F1D04345EFD032804B
:104E80001E4A042695B1B4F8A8520127194C45B31F
:104E9000B4F8EC520DB3B4F8304334B316700020BC
:104EA000BDE8F001704753BA9BB2E0E715702C469D
:104EB00004EB0414124EA4003219F0D09380D18078
:104EC00048B10388335343885380402313721046FC
:104ED000BDE8F00170473051F7E702242546157010
:104EE000E6E73D463C461570E2E70324254615708B
:104EF000DEE700BF38000820800200108C0200109E
:104F000098020820DFF850C02DE9F001DFF84C804E
:104F1000BCF89461002388F80030AEB101231F462D
:104F20000CF5CA7100E02F4631F8024F5A1C1E469C
:104F3000D5B2134634B1062AF5D188F80050BDE841
:104F4000F001704788F800700CEB4606A6F8940153
:104F5000BDE8F001704700BF380008208C02001047
:104F60002DE9F04FBC4D042887B02B6821D0DFF825
:104F70000CB3BA4EBA4F0BF13602032832603A60D6
:104F800070D0022800F0E680052800F087819BF8A9
:104F90000E30452B00F02981B24812F029FADFF8D3
:104FA000EC82B14C0023238088F8003007B0BDE8C4
:104FB000F08FDFF8D882AC4CAC4A1388002BF1D0CC
:104FC00003F11C01AA4ADFF8B4B289B21268080AD8
:104FD0008BF810008BF81110167A08335BBA112584
:104FE0000020ABF826308BF816608BF81750ABF822
:104FF000280090889F4BABF82200D58818885B88E2
:10500000ABF82450ABF81C30ABF81A001088934B67
:10501000ABF81E0050880BF136022180ABF820005F
:105020001A60954900230A884520013292B2140A79
:105030008BF813208BF812408BF80E008BF80F3092
:105040008BF815308BF81430ABF818300A80FFF766
:10505000B5FEC043ABF81800002388F8003007B055
:10506000BDE8F08F5A7E02F00F02032A97D11A8A08
:10507000DFF81882002A94D1082288F800207A4CA0
:10508000019312F019FB794A019B98F8000000F097
:10509000200101F0FF05002900F08F81002114207C
:1050A000DFF8D091597611808BF82F0028222280CA
:1050B00050228BF82E201A7A06268BF82A205A7A4C
:1050C000B9F802108BF82B209A7AB9F800508BF8B7
:1050D0002C20D87A694A8BF82D00187B8BF8260093
:1050E000587B8BF82700987B8BF82800D87B8BF8AF
:1050F00017608BF829009888ABF82200D888ABF8A5
:105100001A50ABF82400ABF81C101988ABF81E102D
:105110005988ABF820105B7EDB0640F14781002305
:1051200082F8313082F83030228800234021100A82
:105130008BF811208BF810008BF816108BF8353097
:105140008BF83430ABF83230FFF7D6FDC043ABF804
:10515000320066E74A4AD1780131C9B2D17061B9EB
:1051600091780131C9B2917039B951780131C9B220
:10517000517011B9117801311170587E3A4C3B4A87
:1051800000F0FD050021052D2180118000F0A08098
:1051900000285ED0198A002900F0F780997E4D1E04
:1051A0009D76002955D1D97E082900F0A281451E9F
:1051B000012D40F29B8104299CBF4FF0030C0CFA97
:1051C00001FC00F00F0094BF5FFA8CFC4FF0300C34
:1051D0000131451ED97683F81AC0072D39D8DFE88A
:1051E00005F089A3A681388138811F4C9BF810A057
:1051F0009BF81120238802EB0A2A9A4526DC9BF8AB
:1052000014301FFA8AFA9906A4F800A040D19BF83E
:105210001530002B3CD1DFF85C90B9F80030002B42
:1052200040F0A280B9F80220002A40F09D8001934E
:10523000FFF7C4FD4FF6FF718842019B00F020810B
:10524000104812F0D5F8DFF84480ABE60E4812F0B3
:10525000CFF8DFF83880A5E6880A0010900A001021
:10526000A00A001040FE0400AA0A0010980A0010CC
:10527000AC0A0010940A00107A02001038000820CE
:105280007C020010B0FE040068FE0400A80A0010B2
:10529000B34812F0ADF8DFF8F48283E6B14B1B6837
:1052A0009B88002B3FF47BAEAF4AB04CDFF8DC822A
:1052B00000230BF12A0108201380316039602B6034
:1052C000238088F800000292FFF716FA029A74E62B
:1052D0009A7E0132D2B2782A9A76BAD15976DFF81C
:1052E000AC825FE6DFF8A482DFF8A49211228BF88B
:1052F0002F20DBE6DFF8989212204FF0020E0427F1
:1053000001265A252C2160228BF82F008BF836E0DD
:105310008BF837708BF838608BF8395021808BF818
:105320002E20DFF86882C6E6DFF86492E5E7DFF852
:105330005C82042188F800100292019312F0BCF9FB
:10534000029A019B11883A683260002900F0A88017
:105350001A8A002A00F0A4802832182122808BF8B3
:105360002F10DFF82C92A3E69BF817208049112A12
:10537000CA8B34D093427FF46CAFBBF82010B9F8DD
:10538000022091427FF465AF51E700F00F0003283F
:10539000DFF8F8817FF406AE082188F80010029249
:1053A000019312F089F9029A019B6EE601215A23BA
:1053B00082F8301082F83130B6E600F0100101F0CA
:1053C000FF0C002979D0012604201121DD761E82F0
:1053D00058761580DFF8B8918BF82F1066E64FF6F7
:1053E000FF708242C6D1098C9142C3D1BBF824E040
:1053F000AAF11C035F49BBF822A0BBF81A80BBF8D6
:105400001CB02380DFF85C91CDF80CB001F14403AF
:1054100001F5AA70059403E0443383427AD06146D3
:1054200033F8402C9C46002AF6D07245F4D133F86C
:105430003E2C0AB15245EFD133F8442C002A4CD10E
:1054400033F842BCBBF1000F06D04245E4D133F83B
:10545000422C039CA242DFD1434AC9F80010DFF876
:105460002C81454900230220138088F80000316018
:1054700039602B60059C0292FFF73EF9029A9CE589
:105480009BF81710DFF8E88006294CD01129ADD021
:10549000012954D0394811F0ABFFDFF8F08081E5E5
:1054A00098F8002097077FF57DAD282110222180F4
:1054B0008BF82F20DFF8D890FAE511882A4D49B1F2
:1054C000C00747D5A3F810C0588A814288BF108012
:1054D000118819820022DA7635E74FF6FF74A2426E
:1054E000B3D133F842BCA345AFD1B5E705297FF46A
:1054F00062AE0022DFF894805A76802288F800207D
:10550000019312F0D9F814228BF82F20DFF8809045
:10551000019BCBE51A48059CC9F800C0DFF86C80F8
:1055200011F066FF3EE50290FFF7E6FB029A90421B
:1055300030D0144811F05CFFDFF8508032E598F865
:105540002220082A00F0AD800F4811F051FFDFF84B
:105550003C8027E5188A0028B6D028800146B9E7A4
:1055600098FE0400AC0A0010980A0010AA0A001065
:10557000380008209802082062000820C4FE0400B9
:10558000F8FE04001CFF0400E0FE0400A80A00105E
:10559000940A0010B8F822C0B8F81A10B8F81C30F5
:1055A000B8F8240008F5E072CDF80CC0049105931A
:1055B00008F5207CCDF800A012F8071CA2F120030A
:1055C00021B132F81C8C804500F08A80203262457F
:1055D000F2D19BF82F30CC4903F03F03022B00F0AF
:1055E000C880DFF83C839BF82F20C74B52073FF55C
:1055F000D9AC93F8295093F82DE093F82C7093F8D8
:105600002B6093F8262093F8280093F8271093F83E
:105610002AC00135DFF80CA3EDB283F829E083F846
:1056200028704FF0140E282783F82760502683F83F
:105630002D5083F82C0083F82B108AF8002083F873
:105640002A2083F826C083F82FE0278083F82E6075
:1056500065B90130C0B283F82C0038B90131C9B244
:1056600083F82B1011B9013283F82A20BBF82230BD
:10567000BBF82460BBF81A50BBF81C00A34FB9F864
:105680000010B9F802203B80ABF82430ABF8226060
:10569000ABF81E50ABF82000ABF81A10ABF81C208A
:1056A00042E5B8F824204FF6F6718A424FF0000028
:1056B0008CBF0932083288F82200A8F82420BBF8F1
:1056C0001C10BBF81A20B9F80200ABF82010ABF898
:1056D0001C00ABF81E20ABF81A30DFF84482BBE4A4
:1056E00032F81A8CDDF80CA0D0457FF46FAF32F899
:1056F000208CDDF810A0D0457FF468AF32F81E8C06
:10570000DDF814A0D0457FF461AF9BF82F20DFF8BF
:105710001082002012F0040FDDF800A02B6088F842
:105720000000DFF8E4C140F051829CF82EC0AAF1DD
:1057300014004FEA1C1C4FEA8C0CCCEB0000DFF885
:10574000E4A101F00F0180B2022920808AF800C094
:1057500000F0F08010B9910700F0F180BBF826C08E
:1057600018896949844500F03C8210228BF82F206B
:105770009CE4B1F89461654ADFF8A8A1002786424D
:1057800010808AF8007011D0012601F5CA718AF8DC
:10579000006002E0072E2CD0334631F8027F5E1CF9
:1057A000B842F6B2F6D100238AF800309BF8B9016E
:1057B00020B30021564F0B4601260CE0062E5FFA5F
:1057C00086FE00F0B48097F8390031462037013664
:1057D000002800F0A9800728F0D148010BEB000E4B
:1057E00023B19EF8BAE1997E8E45E7D9484B034430
:1057F000E4E7DFF82C818AF80030F4E60146DFF8B0
:1058000010C10CEB4113002B77D00321002604209C
:10581000997619769E75DE76D875BBF824003D49D9
:105820009880BBF822002B60D880BBF81A0091F852
:1058300000E01880BBF81CC04F788D78C978012033
:1058400058761882A3F802C083F80CE05F739D734A
:10585000D9739BF82910D9729BF8281099729BF87C
:10586000271059729BF82610197202920193FFF7C4
:105870008FFA9BF82E10029A01F0F0005028019B3D
:105880007FF73AAD0F092449053F0D78BF008AF82C
:1058900000603046B8422CDA0BEB000696F8365022
:1058A000B64635B3012D09D0022D0AD09EF83760D7
:1058B00006EB000EEEB15FFA8EF0EBE70130C0B2FE
:1058C000E8E796F837C0BCF1040FEFD196F83870CE
:1058D00096F839608AF8000046EA0726B6F5AD7FEB
:1058E00034BF30464FF4AD700D70168058829882E8
:1058F00002E58AF800000D70FEE4084811F078FD1A
:10590000DFF81C80FFF74EBB38000820780200103B
:10591000D80108207C0200108D02001030FF040026
:10592000A80A00108C0200108AF800E067E78AF8E5
:1059300000E068E702F03F0112297FF40BAFD206C6
:1059400001D5198AD1B95A7E02F00F010139072910
:105950003FF628AB0FF2040C5CF821F0EF5B00007F
:10596000815B0000B75A0000755A0000535A0000CE
:105970003D5A00006B570000215A000003F10C0053
:105980000193FFF7D9F9A74A9BF82A001178019BE8
:105990000391DDF80CC0A4498445D4D192F801C02C
:1059A00091F82B00CDF814C08445CCD191F82C008F
:1059B0000490DDF810C090786045C4D191F82D10A6
:1059C000D2788A42BFD1039993F81BC01973059905
:1059D00098735973DA73BCF1000F19D1187E997E50
:1059E0009A7D411AA1EBD201C9B20A44D0B2CAB21F
:1059F00012F0800F18BF4A42D97D18BFD2B2A1EB76
:105A000091010A44D2B2987502EBD0001876DA758B
:105A1000187E01210022987688F800101A8292E7F9
:105A200098F80010814ACE077FF5BCAA002159766C
:105A30001023137011F040FEFFF7B4BA98F800205D
:105A4000D2077FF5AFAA0721002259769A76FFF791
:105A5000A9BA208818B10193FFF79AF9019B9BF826
:105A60002F20D10700F1A3802288002A7FF47DAE89
:105A7000FFF798BA208818B10193FFF789F9019BC5
:105A80009BF82F2012F0010200F0968098F8002079
:105A9000D50740F189800022072159769A761A822B
:105AA00001200193FFF774F9102288F8002011F00B
:105AB00003FE019B59E69BF82F10CD0724D5D00695
:105AC00022D41A8A002A7FF46DAA2088019301301B
:105AD00080B2FFF75DF998F80020208842F01001AD
:105AE00088F80010019B514910B142F012020A706F
:105AF000019311F0E1FD019B012008210022188291
:105B00005976DA76FFF7F2BB89060BD59BF834C0DD
:105B10009BF835003168258840EA0C200144281A9A
:105B200031602080208858B1D20609D498F800202E
:105B300042F0020288F800200193FFF729F9019B47
:105B40009BF830009BF83110394A01EB0021988A0C
:105B500089B28142118000D801B91080118898F86B
:105B60000020598295073FF41DAA324A0021118076
:105B70000292019311F0A0FD019B029AFFF785BAF2
:105B800098F80020D20706D59BF82F10264A01F07E
:105B90003F01122952D0202388F8003011F08CFDEB
:105BA0002B6800225A761EE506225A7678E70721EE
:105BB000002259769A7673E798F80010C8077FF5A7
:105BC00053AF05211A825976FFF7ECB958761A4877
:105BD00011F00EFC202388F8003011F06DFDFFF766
:105BE000E1B9088D598988427FF4BFADA7E698F8DE
:105BF00000100E4AC9077FF5D5A920884FF0030E83
:105C00004025002183F819E01570198228B142213E
:105C100011700193FFF7BCF8019B064A0021118027
:105C2000FFF7BDBBA40A001038000820A80A001026
:105C300078020010980A001054FF040092F82E20F9
:105C400002F0F001502939DD2F491209A2F1050EA9
:105C5000087800224FEA8E0E8AF8002072454EDA4C
:105C60000BEB020595F83600AC46002847D001281A
:105C700042D0022808D09CF8375005EB020C002DCA
:105C80003DD05FFA8CF2E9E795F83790B9F1040F4F
:105C9000F1D195F838E095F83950DFF874C045EA4D
:105CA0000E2EBEF5AD7F34BF75464FF4AD758AF844
:105CB00000200870ACF800E05D829D829BF828000F
:105CC0009BF829109BF826E09BF827500322987236
:105CD000D9725A7683F808E05D7201200193FFF7CC
:105CE00057F8019B094A0021422019822180118026
:105CF00088F80000FFF753BB0132D2B2AEE78AF852
:105D000000200870DAE700BF8D020010980A00102A
:105D10007802001040BA80B2704700BF0A1E0346E6
:105D200009DD0548054900680A80834203D0194609
:105D300092B244F09ABE7047A00A0010980A001070
:105D40002DE9F0073B4B3C4EB3F81CC0B3F81E8066
:105D50003A4D33460122002705E0092903F10C03DF
:105D600017D017460A461888511CC9B20028F4D02B
:105D70005C88002CF1D06045EFD14445EDD1304A2C
:105D8000304C1068918822782F70586019819A726F
:105D900024E0294B0122002701E017460A46188813
:105DA000511CC9B21C4610B9588800283CD009299A
:105DB00003F10C03F1D1082A2A70224B11D093F879
:105DC00000C0214923460A4652F8060D0968928808
:105DD00043F8041B60609A8084F80AC0BDE8F007AD
:105DE00070470027DFF864A0DFF86490124A93F848
:105DF00000C0B8463B46917ADCB2C1EB0C01B94217
:105E000003F10103C4BFA046CFB2082B02F10C027C
:105E1000F1D108EB48048AF8007089F8008085F811
:105E2000008006EB8404CCE7064B2F7093F800C08B
:105E3000C7E700BF38000820A80308208E02001022
:105E40004E00082091020010540008208F0200101C
:105E500090020010F0B4154A154D1678154B013616
:105E6000F6B216700027012205E02A70CAB2092A8C
:105E700003F10C0318D05C881888511C204380B2B1
:105E80000028F2D0987A301A7728EEDD184600F80C
:105E9000017B01302A70CAB25F70092A00F8017BC9
:105EA000077003F10C03E6D1F0BC704791020010BB
:105EB0008E020010A80308202DE9F84F304C2388EB
:105EC000292B12D92F4D0026AB8A2680B3F5807F6F
:105ED00004D0B3F5007F0CD0BDE8F88F2A4FEA8CD0
:105EE0003B889A4212D0BDE8F88F00232380BDE89A
:105EF000F88F254BE98C1A889142F4D12A8D5B8862
:105F00009A42F0D1BDE8F84FFFF71ABF2A8D7B887F
:105F10009A42E8D1FFF714FF022329466B7551F826
:105F2000168F1A4BB1F804C01A689B88C5F82080F8
:105F3000A5F824C0C5F81620B5F824B08B80D5F894
:105F400020A0B5F81C90B5F81E80B7F800C07F8877
:105F5000082006216B81C5F806204FF02A03A5F81A
:105F600004B0C5F800A02E75A5F82690A5F82880E5
:105F7000A5F81CC0EF83287369732380BDE8F88FF0
:105F8000AA0A001038000820940A001084020010A9
:105F90002DE9F84F504E4FF6FF73F28B95B29D42AC
:105FA0004FD0DFF858814D4BB8F800001988684091
:105FB00008423BD04A4B4B4F1D885B883D807B801D
:105FC000DFF83CA1B7F80290474B01244FF0000CDA
:105FD00005E0092A03F10C030DD0A44614461988E4
:105FE000621CA942D2B21846F3D159884945F0D172
:105FF0008AF800C003E0082C8AF800402AD0034643
:1060000053F8040F9B883060B380384A384B1568CA
:106010001F88948837480E3700210822C6F806509A
:1060200084801F8071733273BDE8F88F318CB8F8AB
:1060300002005B8848401842BCD12A4F3A807980E0
:10604000BEE7338CAB42ACD12B4B18689B883060D9
:10605000B380DAE7FF2106221F4844F02AFD234BD4
:10606000244A798898881F68B8F80090002302F1C4
:10607000300B3473DFF88CA0B8F80280F5843474E8
:1060800006250424C6F80670C6F816709080908223
:10609000174A4FF02A0C318586F82030012186F806
:1060A000213086F8223086F8233086F8243086F8AE
:1060B0002530B574F474CAF800B0A6F81C90A6F8A0
:1060C0001E80A2F800C03375B37373747175F173D9
:1060D0007573BDE8F88F00BF380008208C0A0010E7
:1060E0009C0A001094020010A803082084020010EB
:1060F000AA0A00103E0008207CFF0400940A001049
:106100008E020010900A001070B4134E75682A7841
:10611000A2B103780D2B11D00A2B0FD09A4214D1C3
:10612000002306E0C25C0D2A08D00A2A06D0944259
:106130000BD10133DBB2EC5C002CF3D1B268F36815
:10614000012081E80C0070BC70473668002EDDD15C
:10615000304670BC704700BF6402050010B5064CA5
:1061600020683AF095FC054A00231068236043F04C
:10617000C1FD012010BD00BFA00200109C02001054
:1061800070B5038D82B0B3F5987F0446164600F0D3
:106190009B8018D9B3F59B7F00F089802FD8B3F589
:1061A000997F33D0B3F59A7F24D100F12805654853
:1061B00045F049F8634902462846FEF70FFCC8B986
:1061C000002002B070BDB3F5947F5FD059D940F282
:1061D0002912934234D0B3F5977F0BD104F12805EF
:1061E000594845F030F8584902462846FEF7F6FB74
:1061F0000028E5D000230220238502B070BDB3F54E
:106200009C7F10D0B3F59D7FE8D0F3E700F128051F
:106210004E4845F018F84D4902462846FEF7DEFB89
:106220000028E7D1CCE700F12805494845F00BF8F4
:10623000474902462846FEF7D1FB0028DAD1BFE7DE
:1062400000F12805434844F0FEFF42490246284633
:10625000FEF7C4FB0028B3D0002ECBD004F1B4006D
:106260002E2145F043F8064600284ED03A483146E4
:10627000052245F013F8002833D14FF49873238595
:1062800024E0002BB6D14FF49473038508460191A6
:1062900044F0D9FF04F12805024601992846FEF78B
:1062A0009DFB00288CD040F229132385CAE700F11A
:1062B00028052A4844F0C7FF284902462846FEF729
:1062C0008DFB002896D17BE700F12805244844F097
:1062D000BAFF234902462846FEF780FB002889D1F1
:1062E0006EE720483146042244F0D8FF18B94FF435
:1062F000997323858CE71C483146042244F0CEFF75
:1063000038B94FF49A73238551E74FF49773238577
:1063100066E716483146042244F0C0FF18B94FF42E
:106320009B732385C5E731461148042244F0B6FF2C
:1063300018B94FF49C73238577E74FF49D73238539
:106340004EE700BF9001050084FF0400AC0105008A
:106350004001050078000500C0FF040008020500A8
:1063600074010500D0FF0400C8FF040070000500A0
:106370003802050038B5038D044603B3B3F5857FB5
:1063800019D100F1280528460E492246FEF74EFB9A
:10639000A0B1B4F83C21D4F83431D4F830119B1AB0
:1063A000002B0A44C4F83431C4F8302103DD4FF423
:1063B00085732385E7E700232385022038BD00F19C
:1063C0002805F4E71164000038B50E4B0E4D1B682C
:1063D00004465A8A0121D0F83831286844F026F85A
:1063E000002803DDA4F83C0180B238BD074A2B68C1
:1063F000108891781880002299700220A4F83C211E
:1064000038BD00BF880A0010900A00101CBC0500AF
:106410000A4B10B51A68D0F83431528A04469342B8
:10642000D8BF9AB2064BA0F83C21D4F830111868B6
:1064300044F01BFBB4F83C0110BD00BF880A0010FB
:10644000900A001038B505460C4631B3D8B1D1F8E2
:10645000540111F065FD092805DD2146124844F07C
:10646000DBFB002038BD21462A46104844F0D4FB0F
:106470002846D4F8544144F0CBFE0146204611F0A2
:1064800037FD012038BD0A4844F0C6FBD4F854015A
:10649000294611F02DFD012038BD064844F0BCFB13
:1064A0004FF0FF3038BD00BF04540500E85305002D
:1064B000D0530500A453050038B5134D0C460A46C9
:1064C0002B68012144F00CFAA04204D0FFF746FEED
:1064D0000023184638BD0D4B1A681044B0F5C87F2C
:1064E00003DA18600123184638BD002228681A60B4
:1064F00043F000FC064B0749186843F09DFE01235A
:106500002860184638BD00BF9C0200109802001099
:10651000A0020010285405002DE9F047A54EA64D15
:1065200031782F68480682B0FC695ED4002C00F0F8
:10653000F88101F0080303F0FF0223BB227011F081
:10654000300F2BD10A0629D494F82D31032B00F0FB
:10655000D380A28840F2ED118A4200F01E82B2F58B
:10656000F77FC0F09180B2F50F7F00F0E68140F236
:106570004D218A4200F09681B2F5017F00F01C8225
:106580000022A280B5E023780133DBB2272B2370F1
:10659000D5D98A4844F0F4FB202333702B6888480F
:1065A000D98849BA89B244F037FBD4F838311BB1E5
:1065B000844B186843F09EFBD4F8400108B13AF0D0
:1065C00067FAD4F850313BB1D4F8540111F0C6FC4D
:1065D000D4F8500110F03AFD20463AF059FA2B68F1
:1065E0000022DA6102B0BDE8F0874FF4AE703AF0F5
:1065F00049FA0446002800F09A81F8613888FFF7CC
:1066000089FB2B6882461888FFF784FB2B6881463C
:106610005888FFF77FFB2B6880465888FFF77AFB86
:106620002B685FFA80FCB3F806E004F150079EFA8D
:106630009EFE1FFA8EF0C8F30F23CDF800C0CAF3F8
:106640000F215FFA89F201905F4844F0E5FA39467C
:10665000201D6322FEF78EFA394604F128006322DA
:10666000FEF788FA0023A4F84C30A4F84E3084F8E2
:106670002D312370C4F83831C4F84031C4F8543196
:10668000C4F85031317854E7002A00F02281B2F585
:10669000EF7F7FF475AF251D28462021FEF702FA13
:1066A000002800F03B8104F1500738464749032297
:1066B00044F0F4FD002840F072810123444984F83D
:1066C0002C31444844F0A8FA40F2ED13A380284648
:1066D0002021FEF7E7F9002800F0208194F85030DF
:1066E0002F2B00F0AD8100231022A38094F82D31D0
:1066F0003270032B7FF476AFB4F84C30B3F5AF7F34
:1067000000F0C68124D940F2711293421BD0B3F538
:10671000B97F3ED2B3F5B37F00F0268340F24782C3
:1067200040F2671293420ED0B3F5B87F2DD12046C8
:1067300029490122FFF724FD00283FF453AF40F21E
:106740007113A4F84C302046FFF714FED8B949E77E
:10675000B3F5A87F00F0DA8242D9B3F5AB7F00F041
:10676000E98240F2B88140F25B12934270D0B3F5F7
:10677000AE7F0AD104F1280018490822FEF72EF94D
:1067800000283FF42FAF102333700023A4F84C30BF
:1067900028E740F27F12934200F06582B3F5C07F94
:1067A000C0F08B81B3F5C17F00F06E82B3F5C37F7B
:1067B000C9D0EAE7A80A0010880A0010945405001E
:1067C000AC5405009C0200105C540500400205001A
:1067D0003C540500DC540500A4FF0400C456050029
:1067E000B3F5A57F00F06F8240F24B12934200F0A8
:1067F0005A81002BC9D194F82C31032B00F05F8211
:1068000004F1B405022B284640F05283B94944F004
:10681000EDFC002800F073822846B74944F0E6FCFE
:10682000002800F080822846B44944F0DFFC0028AC
:1068300040F08982B24894F84A1144F0EDF994F896
:106840004A31002B40F0208140F25B13A4F84C3019
:106850002046AC490122FFF793FC00283FF4C2AE6A
:106860004FF4AE73238585E7A74844F089FA94F87E
:106870002C31032B984600F08D82012B00F0898289
:10688000022B40F0CD8004F1B40738469B4944F018
:10689000ADFC002840F05A83042384F82D3140F2E7
:1068A0004D23A380B4F84E30D4F80C90E78A002B27
:1068B00000F0838140F2C11293420ED00023A4F86D
:1068C0004E3000220323E28284F8242084F82D3104
:1068D00056E64FF4EF73A380DDE694F84B31012BBD
:1068E00019D033789B0719D5884B894A1D88012315
:1068F000106884F84B31002D40F0F181D4F84471D8
:10690000002F40F3FD8240F2C113A4F84E3094F8FA
:106910004B31012BE5D1002384F84B3194F82D3114
:10692000E7E67C4844F078F9202333705AE67A4849
:1069300044F026FA2023337054E6251D28460A2108
:10694000FEF7B0F80028E9D02846FEF7A5F80023A6
:10695000204480F84F302846D4F84471FEF79CF864
:1069600004F150033A1A19461F46C4F844216B48F3
:1069700044F052F93846D4F8501110F0B1FBB4F895
:1069800058310133A4F85831D4F84431022B40F384
:1069900039834FF40F73A380D0E7251D97E638465F
:1069A0005F49042244F07AFC002840F0478102232A
:1069B00084F82C315B4984E6251D28460A21FEF720
:1069C00071F80028AAD02846FEF766F80023204474
:1069D00080F84F3094F850300D2B3FF445AF04F160
:1069E00050073946504844F017F938464F491022AD
:1069F00044F054FC8046002800F0E18138464C49C0
:106A00000B2244F04BFC8046002800F0ED81384614
:106A100048490F2244F042FC0746002800F001825A
:106A200094F82D1101292BD0022900F0B7810429F7
:106A30003FF435AF404844F0EFF894F82D319FE52E
:106A400094F85130202B00F09C812846FEF724F862
:106A500004F1B4072044002380F84F3004F15001C2
:106A600038463C2244F030FC3946344844F0D4F8EF
:106A70000023012284F82D21C4F8443184F84C31DC
:106A80004FF40173A38098E74FF4AF73A4F84C3030
:106A900020462B490122FFF773FB00283FF4A2ADEB
:106AA00040F25F13238504F1280026490422FDF7F4
:106AB00095FF00287FF467AE94E540F27B12934285
:106AC0007FF463AE204620490022FFF759FB0028DF
:106AD0007FF459AE86E5B3F5A97F7FF456AE238DDA
:106AE000D32B33D0D92B47D0002B57D0002323856D
:106AF00049E600BF705505007C55050008550500A6
:106B0000B0560500C8010500F8540500AA0A001097
:106B1000900A00107854050040540500C055050047
:106B2000D8FF04002C540500105505006001050035
:106B30003C550500F801050048560500E8540500DD
:106B40002402050058560500C0000500D4F8540181
:106B500011F0E6F900287FF745ADD4F8540111F0A3
:106B600011FA0146C4F84001002800F03082B7480D
:106B700044F052F8D9232385D4F84051284644F0F4
:106B800062FB2946024604F12800FDF727FF002892
:106B90003FF428ADD4F8400139F07AFFD3232385A0
:106BA000D4F8540111F0BCF90028D6DC1AE540F203
:106BB0005F1293423FF477AFE7E504F1F005DFF8A9
:106BC000ECA22946A248D4F8442144F025F8DAF88A
:106BD000000008B139F05CFF284644F034FB053072
:106BE00039F050FF9B4B8046294640F8043BCAF8D9
:106BF000008044F005FB4046974943F01DFB974B4E
:106C00008046DFF8A8A21860002800F08981294694
:106C1000934844F001F8002F6ED048463946FFF7FC
:106C20004BFC0546002800F0AE81D4F84431DF1B50
:106C3000C4F84471012384F84B3161E63846894930
:106C4000072244F02BFB002840F0E680032384F861
:106C50002C31854935E52946844843F0DDFF40F273
:106C60007F13A4F84C30204681490122FFF788FAAF
:106C700000283FF4B7ACD4F83831002B00F0B181D4
:106C80004FF4C173A4F84C30238D002B00F0C18069
:106C9000B3F58C7F7FF42AAF04F1280528467549A7
:106CA0002246FDF7C3FE00283FF49CACB4F83C71CB
:106CB000002F00F02E814FF48C732385EEE74FF404
:106CC000A573A4F84C3020466B490122FFF758FA0F
:106CD00000283FF487AC40F24B132385E3E62946B6
:106CE000FFF7EAFB0746002800F02881D4F844713A
:106CF0007F1BC4F8447103E6D4F844719AE75F48F7
:106D000044F03EF84FF4A873A4F84C30204658499C
:106D10000122FFF735FA00283FF464AC4FF4A97361
:106D2000A4F84C30DBE6564844F02AF84FF4AB7335
:106D3000A4F84C3020464E490122FFF721FA0028E2
:106D40007FF421AD4EE429464E4843F065FF04F53B
:106D500098714D48FFF7D8F928464B4944F050FA4E
:106D60004FF4B373A4F84C30204648490122FFF792
:106D700007FA00283FF436AC40F26713A4F84C3011
:106D8000E1E404F1B407384641493C2244F09CFA5E
:106D90006AE6032384F82D31FFF7F2BB94F82C81C7
:106DA00004F1B407B8F1020F00F0D2803946394837
:106DB00043F032FF032384F82D31FFF7E1BB28466F
:106DC000FDF76AFE04F16007204480F84E803846E3
:106DD00042F024FF39460246C4F844012E4843F0ED
:106DE0001BFF94F82D111DE62846FDF755FE04F112
:106DF000F007204480F84E8004F15C013B223846C5
:106E000044F062FA3946254843F006FF94F82D1104
:106E100008E604F128054EE73946214843F0FCFE18
:106E200061E42846FDF738FE204480F84E7004F1F6
:106E30005F0108221B4844F031FA011C18BF0121F0
:106E400084F84C11184843F0E7FEE9E57856050050
:106E5000F05505002F73642F085605009C020010A2
:106E600050570500E0010500345405003C5705006B
:106E700024020500C9630000E0FF0400605605001D
:106E800090560500D056050034010500A4FF04000B
:106E9000480205008C550500245505004C55050099
:106EA000C4540500EC01050060550500A002001067
:106EB0005C49042244F0F2F900286CD129465A4872
:106EC00043F0AAFE2846594943F0B6F9C4F8380100
:106ED000002800F09F8094F84C31002B3FF4BBAEAB
:106EE000D4F8380120B142F005FF0023C4F838314E
:106EF0004F4843F045FF40F27B13A4F84C30E1E5E6
:106F0000FFF72CF9012384F84A314A4843F038FF4F
:106F1000D4E4D4F8380142F0EDFEC4F83871E5E568
:106F2000DAF8000039F0B4FD4348CAF8008043F0B5
:106F300027FF84F84A81A4F84E80C2E43F4843F01A
:106F40001FFF84F84A71A4F84E70BAE484F82D81CA
:106F500038463B4944F04AF9002848D03846394978
:106F600044F044F900287FF421AFC4F85001D4F86C
:106F7000441100239942A4F858317FF70AAF3248F0
:106F800043F04AFE00E5314843F0FAFE84F84A51E6
:106F9000A4F84E5095E4002304F59877C4F83831EE
:106FA00039462846FFF7B0F8002894D1284843F026
:106FB000E7FE39462748FFF7A7F82846254944F059
:106FC0001FF94FF4B873A4F84C30FFF7B0BBB4F816
:106FD0005831013B9BB2A4F85831002B3FF486ADE9
:106FE000DCE54FF4C373A4F84C30FFF7ACBB10F0F2
:106FF00075FF2146C4F85401174810F007F8C4F88B
:107000005001B4E7154843F0BBFE032384F82D314B
:10701000FFF7B6BA1248294643F0FEFD04F598770B
:10702000C4E700BFE4560500EC560500BCE60500C9
:1070300028570500385605000C560500285605004F
:10704000705505007C550500A45505002056050027
:10705000145705003401050045640000E0550500A3
:10706000005705004FF4A040FDF74CBF0249034A0A
:1070700001608260704700BFB8770500D0FD050051
:1070800010B50A4B0A4A044603F1540103F14800C3
:10709000C4F890002360C4F89410C4F8982004F158
:1070A000940002F057FC204610BD00BF98790500FF
:1070B000B85E0500A0F19800FFF7E2BFA0F19400D0
:1070C000FFF7DEBF10B5074B044603F1300103F1B3
:1070D00048022360616040F8082F02F03BFC204624
:1070E00010BD00BF48780500A0F10800FFF7EABF17
:1070F00010B5044A044B04460260836002F082FB30
:10710000204610BDB8770500D0FD050010B50B4B2B
:107110000B4A044603F1540103F148002360C4F80C
:107120009000C4F89410C4F8982004F1940002F080
:1071300011FC204602F066FB204610BD9879050040
:10714000B85E0500A0F19800E0E700BFA0F1940050
:10715000DCE700BF10B5084B044603F1300103F132
:1071600048022360616040F8082F02F0F3FB2046DC
:1071700002F048FB204610BD48780500A0F1080049
:10718000E8E700BF38B50E4B044603F15C0503F198
:10719000680103F1800284E82800A16040F89C2F78
:1071A00002F0D8FB074B204603F14C0103F15802D3
:1071B00023606160A26011F061FC204638BD00BF11
:1071C00098640500F0740500A0F19C00FFF7DABF99
:1071D00010B5034B0446036005F086FE204610BD43
:1071E000C85D050010B5054B0446036005F07CFE44
:1071F000204602F007FB204610BD00BFC85D050019
:1072000038B50F4B044603F15C0503F1680103F147
:10721000800284E82800A16040F89C2F02F09AFBCD
:10722000084B204603F14C0103F1580223606160D2
:10723000A26011F023FC204602F0E4FA204638BD9B
:1072400098640500F0740500A0F19C00D8E700BF29
:107250002DE9F043BE4CA5B004F10A05204603F029
:10726000EDFF20460021023403F0F0FFAC42F5D1DF
:10727000A8203EF0D7F8044601F018FBB54AB64BFB
:1072800012686068A3FB02120368920C9B68B34902
:1072900098476A46B24903A83EF0C4FE03A8616855
:1072A0002DF0AEFA039BDFF8EC82A3F10C00404511
:1072B00040F02C82AB4812F0D7FAD0F1010938BF68
:1072C0004FF00009B9F1000F00F01682A64F5421CB
:1072D000386802F07BF905462BF058FE2946204617
:1072E00001F0D6FF0821386802F070F9054627F052
:1072F000FDFC2946204601F0CBFF1421386802F03E
:1073000065F9054627F002FE2946204601F0C0FF38
:107310001021386802F05AF9054626F065FD294625
:10732000204601F0B5FF4421386802F04FF90546C8
:1073300016F026FC2946204601F0AAFF01203EF067
:1073400071F805461DF05AF9284602F05BFA012053
:107350003EF068F805461AF079F9284602F052FA2C
:1073600001203EF05FF805461FF000FB284602F0C2
:1073700049FA20203EF056F805461AF037FE294615
:10738000204601F085FF4FF48871386802F01EF93D
:1073900005462AF031F82946204601F079FF3821C8
:1073A000386802F013F9064602F0E4FA6F4B3046F3
:1073B00040F81C3B02F09AFB96F83430002565F348
:1073C000041386F8343031467562B562F5622046A2
:1073D00001F05EFF1021386802F0F8F8027B00230C
:1073E00065F300020273436083600560064602F0A5
:1073F000C1FA5F4B31463360204601F049FF04215A
:10740000386802F0E3F8064602F0B4FA594B314608
:107410003360204601F03CFF40203EF003F8064672
:107420000FF0ECFF3146204601F032FF182138689A
:1074300002F0CCF8064620F0EBFC3146204601F085
:1074400027FF2021386802F0C1F806461AF066FAD4
:107450003146204601F01CFF8C203DF0E3FF06463C
:1074600002F088FA444B304640F8043B02F00EFF2D
:1074700006F11C0002F00AFF06F1340002F006FFDC
:1074800006F14C0002F002FF96F88930314643F0D5
:10749000040303F0970365F3C71386F88930756614
:1074A000B566F5667567B567A6F87C50A6F8805096
:1074B000204601F0EDFE28203DF0B4FF29460646A7
:1074C00028F03AFF3146204601F0E2FE2B4806F054
:1074D00059FE20462A4901F0DBFE2046294901F0E9
:1074E000D7FE2A462B464EF6D321606900F0A2FC57
:1074F000294601F0A1F901F089F9002840F0ED805A
:107500000022134644F20901606900F093FC002157
:1075100001F092F901F07AF9002840F0D0800022C1
:1075200013464DF2BD11606900F084FC164901F06C
:107530008FF901F0B3F8154905463FF0ABFD00287F
:1075400064D004203DF06EFF1149064624E000BFE0
:10755000A40200109801001083DE1B43645705004D
:107560007866050000C0072054030010B0A5050090
:10757000C0870500B086050070AC050020C007205C
:10758000C8C007203CC2072000002041CDCCCC3D24
:10759000002474496C0A001028463FF0BFFB3FF0FE
:1075A000BFFD00220146304603F0DEFD3146204695
:1075B00001F06EFE28463EF01DFF66680246356803
:1075C0000B46AD6830465749A8472046564901F05A
:1075D0005FFE606900F0E8FB94F8A430DB071BD481
:1075E000B9F1000F23D1514C2368DA68986992F8F9
:1075F000541108F09BFD2368986A03F05FF8236834
:10760000586A02F0DDFF25B0BDE8F08360684849A4
:1076100003689B689847D8E70121464803F016FEA7
:107620004548494603F012FEB9F1000FDBD043484C
:10763000434942F001FE06460028D4D06068414923
:1076400003683E4A9B6898473F4F8421324603A80F
:1076500042F0E4FC24AD3D4903AA38B360680368F6
:107660009B6898479DF80C3003A93B2B6A464FF066
:10767000000E02A8E9D045F88C7DCDF808E03EF078
:10768000D1FC20462A46012101F008FE029BA3F10D
:107690000C004045D9D053F8042C511E002A43F861
:1076A000041CD2DC69463EF023FACEE76068284924
:1076B00003689B689847304642F01CFB93E74C21D7
:1076C000386801F083FF2349054606F061FBCDB120
:1076D000291D204601F0DCFD21E7C021386801F0BA
:1076E00075FF1C49054613F0B5FA6DB105F194011B
:1076F000204601F0CDFD03E76068174903689B68E9
:107700009847E3E52946E4E72946F1E753F8042CD6
:10771000511E002A43F8041C3FF7CCAD01A93EF0EE
:10772000E7F9C7E5A0570500BCC00720F802001024
:10773000C4570500A4020010AA020010E457050077
:10774000BCE60500F857050050030010205805005E
:107750002858050020C007208057050070B5FFF7A6
:1077600077FD0D4C0025264620686A1C90F8A43051
:1077700092B2DB0706D5C5F300310848154603F081
:1077800065FD306800210A4601F088FD206803216C
:10779000002201F083FDE7E7F8020010A6020010C6
:1077A000F0B52B4B2B4C83B02B4E0093204601336E
:1077B0002A492B4A11F0DEFC04F120053246294902
:1077C00020463DF017FE284606F008FE04F5D47763
:1077D0003246284624493DF00DFE2946384613F02E
:1077E00039FA32463846214904F1C0073DF002FE1D
:1077F00029462246384612F077F8324638461C4968
:1078000004F51A771B4D3DF0F5FD224638461A491E
:1078100002F002FE3246384618493DF0EBFD28469C
:10782000174903F0FFFCA81C164903F0FBFC281DB8
:10783000154903F0F7FCA81D144903F0F3FC1449A3
:1078400005F1080003B0BDE8F04003F0EBBC00BF59
:1078500006C0092000C00720C800001009C0092088
:1078600008C009206D700000857100008170000063
:10787000C5700000A402001048580500D171000036
:1078800032C0092033C0092034C0092035C0092086
:107890009CC00920004870474C58050000487047BC
:1078A0005C58050038B5084B05280C461B680ADCF7
:1078B00080011D18A91D281D3E22C4F30B1443F09E
:1078C000DDF8A5F8424038BDB002001038B5094BCC
:1078D00004464C201C603DF0A5FD082205464FF4EF
:1078E0007A7104F04BFF28462560034905F002FA3F
:1078F000204638BDB0020010A57800000B68134A7E
:10790000934205D0124A93420FD04FF0FF30704798
:107910000B79172B12D0182B12D0192B12D00D481F
:107920001A2B18BF4FF0FF3070470B791E2B0BD06E
:1079300009481F2B18BF4FF0FF30704707487047AA
:1079400007487047074870470748704700C009203C
:1079500020C009201AC009203FC0092017C00920F3
:1079600018C0092019C009203EC0092038B50446B6
:10797000FFF7C4FF05460146206805F02BF804EB2D
:10798000801040220021043043F093F82068012148
:1079900005F056F920682946012205F027F82068ED
:1079A00029460122BDE8384005F06CB988422DE92E
:1079B000F04781468A462BD0851CA94228D007462D
:1079C00037F8026FB9F800302C46B34205F10208CF
:1079D00010D837F8023C9E4207D2AA1E23801546D3
:1079E00032F8023D2C469E42F8D3D0452E800FD06F
:1079F0004546E5E7C9EB07035B1005D05A00C2EB2B
:107A00000800494643F03AF8D045A9F80060EFD1A4
:107A1000BDE8F0872DE9F00102F1FF3808EBD878D6
:107A20004FEA68084145B8BF0C464CDA651C6C004B
:107A300004F10046013E30F816C030F825602746B4
:107A4000B445074400EB850504D9013C30F81460C7
:107A500000EB4405444527F8026CE7DBD60705D464
:107A6000023A02EBD272B4EB620F20D0621E02EB3C
:107A7000D2728C424FEA620215DD30F81260B342D6
:107A800006D810E030F815601446B34209D92A46EA
:107A9000551E05EBD575914220F814604FEA650537
:107AA000F0DB00EB42052B80BDE8F00170470134AC
:107AB000640004F10042013A30F81220013C2A80AF
:107AC00000EB4405D2E700EB41050C46C6E700BFDA
:107AD0002DE9F84F0B1A212B8246934640F39380F1
:107AE000002A6BD000F102099B103AF81320BAF873
:107AF00002400BF1FF3B944231F8020C44D2824227
:107B000046D3844251D2BAF80050AAF8000021F8B6
:107B1000025CBAF80260BAF80040A6420F464B4633
:107B20001DD20233984633F8026BA642FAD3A5421F
:107B3000A7F1020318D93B1F1F4633F80259A5428B
:107B4000FAD8B84513D2434623F8025B3E80B8F812
:107B50000260BAF8004037F8025CA642E1D3A542C1
:107B60009846A7F10203E6D81F46B845EBD3404636
:107B70005A46FFF7ADFFCAEB0803212B41DDBBF1ED
:107B8000000F1CD04146AFE784420ED38242BAD3E5
:107B9000BAF80000AAF800202AF81300BAF8026028
:107BA00031F8025CBAF80040B7E7BAF80060AAF80A
:107BB0000040AAF8026031F8025CAEE788465E1029
:107BC000B41E6410651C0AEB450500E0013C5046FC
:107BD0002146324635F8023DFFF71CFF002CF5D157
:107BE000BAF8002038F8023C28F8022DCAEB080445
:107BF000621050460021FFF70DFF032CF0DCBDE8BA
:107C0000F88FBDE8F88FBDE8F88F00BFF0B591B0F0
:107C10000446FFF773FE0146206804F0DBFE0646CB
:107C200072B604EB80131C1D03F1440E6F462068EE
:107C30006168A268E3683D460FC5103474452F465D
:107C4000F5D162B60A22684610A9FFF741FF6846DF
:107C500008A9FFF7ABFE0FAF07A88588041D30F811
:107C6000023FAB4234D902462380114632F8023D2E
:107C70000C469D42F8D3B8420D80EED10DF12E0096
:107C80000DF10E03002233F8021F83420A44FAD199
:107C90001249920801EBC6039C885888DC809880C2
:107CA00031F8364090B25C8021F8362059889A88A5
:107CB0000844DB88104418443EF0DCFF4FF07A5152
:107CC0003FF02CF840F06CF83FF02AFA11B0F0BD0C
:107CD0002146B8420D80C0D1D0E700BFB4020010E9
:107CE00001207047002070470120704710B5054BF8
:107CF00004460360406838F0CBFE034B2046236007
:107D000010BD00BF80580500B85E0500064B10B5D9
:107D100004460360406838F0BBFE044B20462360F5
:107D200001F070FD204610BD80580500B85E0500CA
:107D300038B540680D460A4942F07EFA044670B1F3
:107D4000284643F080FA012102462346284642F0A5
:107D5000C7FD0546204641F0CDFF284638BD38BD59
:107D60002854050010B503680A4A0446A3F10C0024
:107D7000904282B002D1204602B010BD53F8042CCC
:107D8000511E002A43F8041CF5DC01A93DF0B0FEA9
:107D9000F1E700BF6C0A00100B460068114647F27D
:107DA000693200F019BB00BF38B5046805462CB134
:107DB000204600F0E1F9204601F024FD00232B606D
:107DC00038BD00BFF8B50C460546FFF7EDFF0C20A7
:107DD0003DF028FB074600F093F92F606CB16C680A
:107DE000AE68B44209D0394600E0296854F8040B63
:107DF00003689B689847A642F7D1F8BD10B50468A0
:107E00004CB1204600F0E2F900B110BD064800F088
:107E100025FC0548F9E7054B05491B6858680368C8
:107E20009B689847204610BDE4020010F80200103D
:107E3000A058050000B583B0ADF800106946ADF854
:107E40000220ADF80430FFF7D9FF03B05DF804FB62
:107E5000F8B5426803680446D31A9B100F4605D054
:107E60005A00934226D96FF0030600E004263046FC
:107E70003DF0D8FA054694E809001B1A9B109A00B9
:107E80003968AF1807D045F8231094E809001B1A89
:107E90009B109A00AF1823B10146284642F0EEFD30
:107EA0002068043708B101F0ADFC2E44A66084E8D8
:107EB000A000F8BDB2F1804FD5D2DE00D7E700BFF9
:107EC00038B5436884680246A34206D009680BB1FE
:107ED000196043680433536038BDFFF7B9FF38BDFC
:107EE0002DE9F0410023064684B043608360C360FF
:107EF000054646F8043B10203DF094FA04AC0746D2
:107F00006E4905F08BFE44F8047D30462146FFF7AC
:107F1000D7FF01AA6A4920463EF084F8204604F0C3
:107F20002DF8039B674FA3F10C02BA42804640F044
:107F3000B7802046B8F1000F5ED0614901AA3EF03B
:107F400071F810203DF06EFA21465F4A804605F038
:107F500043F9039BA3F10C00B84277D1B8F1000FAD
:107F600005D030462146CDF80C80FFF7A9FF01AAC5
:107F7000564920463EF056F8204603F0FFFF039B8B
:107F80008046A3F10C02BA4249D1B8F1000F1ED0CD
:107F90004E4901AA20463EF045F810203DF042FA35
:107FA00021464B4A804605F017F9039BA3F10C00CC
:107FB000B84240D1B8F1000F05D030462146CDF887
:107FC0000C80FFF77DFF284604B0BDE8F08101AAD0
:107FD000404920463EF026F8204603F0CFFF039BA1
:107FE0008046A3F10C02BA424BD1B8F1000FEAD09F
:107FF00001AA20463749CEE701AA37493EF012F8D8
:10800000204603F0BBFF039B8046A3F10C02BA425B
:1080100027D1B8F1000FAAD020462F498EE753F898
:10802000041C481E002943F8040CAEDC104602A9CB
:108030003DF05EFDA9E753F8042C511E002A43F8D9
:10804000041CB7DC02A93DF053FDB3E753F8042C40
:10805000511E002A43F8041C80DC02A93DF048FDB3
:108060007CE753F8041C481E002943F8040CD0DCBC
:10807000104602A93DF03CFDB8F1000F3FF477AF88
:10808000CAE753F8041C481E002943F8040CACDC72
:10809000104602A93DF02CFDB8F1000F93D0A7E7E0
:1080A00053F8041C481E002943F8040C3FF741AF65
:1080B000104602A93DF01CFD3BE700BFDC5805005F
:1080C000E45805006C0A0010F4580500105905002A
:1080D000485805001C590500FC58050010B5054C12
:1080E000204600F0A5FA20460349044ABDE81040A6
:1080F0003DF080B9E4020010657D0000C80000106A
:108100000022026042608260704700BF2DE9F041AA
:1081100090E86000B54282B080461CD0154F55F8FB
:10812000044B3CB12368A3F10C02BA4215D120469E
:1081300001F068FBAE42F2D1D8F800000023C8F885
:108140000030C8F80430C8F8083008B101F05AFB14
:1081500002B0BDE8F0812846F0E753F8041C481E41
:10816000002943F8040CE2DC104601A93DF0C0FCF4
:10817000DDE700BF6C0A001010B50446FFF7C6FF2C
:10818000206808B101F03EFB204610BD10B54368E1
:1081900082B053F8044D436044B123680A4AA3F106
:1081A0000C00904204D1204601F02CFB02B010BD1F
:1081B00053F8042C511E002A43F8041CF3DC01A9D7
:1081C0003DF096FCEFE700BF6C0A0010F8B590E8B0
:1081D0005000B4420F4602D10DE0A6420BD054F835
:1081E000045B384605F10C01062242F02FFC002802
:1081F000F3D12846F8BD00252846F8BD2DE9F04FFB
:1082000090E820024D458BB00F4624D0012600E0B7
:10821000464655F8044BD7F800A0E389B4F80CB0F3
:108220000093238A06F10108019322680292A37C3D
:108230000393E37C0493A0683EF0DCF8CDE90601EB
:1082400062685B460892DAF80840384603493246CD
:10825000A047A945DCD10BB0BDE8F08F2C59050033
:10826000F8B5426803680446D31A9B100F4605D040
:108270005A00934226D96FF0030600E004263046E8
:108280003DF0D0F8054694E809001B1A9B109A00AF
:108290003968AF1807D045F8231094E809001B1A75
:1082A0009B109A00AF1823B10146284642F0E6FB26
:1082B0002068043708B101F0A5FA2E44A66084E8CE
:1082C000A000F8BDB2F1804FD5D2DE00D7E700BFE5
:1082D0002DE9F04790E8A00084B0BD4281460191AD
:1082E00024D08A4601F10C0801E0AF421ED02E686E
:1082F000404606F10C0106222C46043542F0A6FB4E
:108300000028F2D156B13368184AA3F10C0090420C
:1083100020D1304601F076FADDF804A0C4F800A0C0
:10832000134842F02DFD04B0BDE8F087D9F80830BD
:108330009F420AD0019B17B13B60D9F80470043703
:10834000C9F8047004B0BDE8F087484601A9FFF7FA
:1083500087FFE8E753F8042C511E002A43F8041C59
:10836000D7DC03A93DF0C4FBD3E700BF6C0A0010C3
:1083700088590500F8B5426803680446D31A5B10B3
:108380000F4605D05A00934221D96FF0010600E054
:10839000022630463DF046F8054694E809001B1ACF
:1083A0005B1039885A00AF1818BF25F8131043B96D
:1083B000023708B101F026FA2E44A66084E8A00036
:1083C000F8BD0146284642F059FB2068F0E7B2F1BB
:1083D000004FDAD29E00DCE72DE9F04190E89000F2
:1083E000BC4282B0884602D114E0A74212D054F8B1
:1083F000045B2E8A9642F8D1AE894645F5D159687C
:1084000098688E1C814208D0E88901B10880A74293
:108410005E60ECD102B0BDE8F081184605F10E01B6
:1084200001920093FFF7A6FF009B019ADDE700BFD2
:10843000014B0360704700BFB859050010B5034BEE
:108440000446036001F0DEF9204610BDB85905006E
:10845000F0B50B6887B01A780C46232A71D053F810
:108460000C3C022B6DD908460022474902233DF0FF
:10847000B6FA461C054664D023681B5C232B60D0EB
:108480000223204640492A463DF074FA431C074621
:1084900053D03D4920463A4602233DF0A0FA064615
:1084A0000130216850D08B5D232B4DD051F80C2C1E
:1084B0007B1B95424ED82A46214602A83DF06EFD10
:1084C00002A904A803F0B6FB14203CF0ABFF05465C
:1084D00000F0AEF8BDF81010BDF81220BDF8143051
:1084E0000120A874A981EA812B82721C05232046F1
:1084F00026493DF03FFA421C226818BFC6EB000334
:1085000052F80C2C08BF0346964223D82146324627
:1085100003A83DF043FD284603A93DF0C6F9039B9F
:108520001B4CA3F10C00A04217D1029BA3F10C003D
:10853000A0421DD1284607B0F0BD2168154842F081
:108540006BFB002007B0F0BD134842F065FB002034
:1085500007B0F0BD11483DF04FF953F8042C511EFF
:10856000002A43F8041CE0DC01A93DF0C1FADCE775
:1085700053F8042C511E002A43F8041CDADC03A92A
:108580003DF0B6FAD6E700BFD8590500385A0500C5
:108590006C0A0010DC590500405A0500205A0500FD
:1085A00038B51546FFF754FF044618B12846214652
:1085B000FFF78EFE204638BDF0B583B014460F4657
:1085C00001AA19491E4605463DF02CFD21463846B4
:1085D000FFF73EFF044660B1828933889A420BD090
:1085E0002368124AA3F10C00904212D1204601F0F8
:1085F00009F9284603B0F0BDC28973889A42EFD1C9
:10860000B388028A9A42EBD1284621463DF089FC84
:10861000E6E753F8042C511E002A43F8041CE5DC5D
:1086200001A93DF065FAE1E7786605006C0A0010E3
:1086300010B508490022002304460160836082745B
:10864000C2748281C2810282426003493DF0FCFA19
:10865000204610BD780A001078660500002200212F
:1086600081608274C2748281C28102824260014947
:108670003DF0EABA78660500837C10B5044633B94C
:10868000044B05491B68586803689B689847204657
:1086900010BD00BFF80200106C5A0500F0B5837CD5
:1086A00087B004460BB9C37C03BB0023214605A851
:1086B00003933DF02AFC04A805A903F09DFB059B4C
:1086C0001F4DA3F10C00A8422FD1049E03A93046F0
:1086D00043F08AFC039B0746B3420AD9049BA3F1EB
:1086E0000C02AA4215D1384607B0F0BD806807B029
:1086F000F0BD144BB4F80EE01B68268A5868226857
:108700000168A389CDF800E001968C680E49A04766
:10871000E4E753F8041C481E002943F8040CE2DC8B
:10872000104605A93DF0E4F9DDE753F8042C511E8D
:10873000002A43F8041CC8DC02A93DF0D9F9C4E7BB
:108740006C0A0010F8020010C85A0500F0B5837CCE
:1087500087B004460BB9C37C0BBB0023214605A898
:1087600003933DF0D2FB04A805A903F045FB059B4C
:10877000204DA3F10C00A84230D1049E03A930463D
:108780000A2243F0CBFC039B0746B3420AD9049B61
:10879000A3F10C02AA4215D1384607B0F0BD4068DB
:1087A00007B0F0BD144BB4F80EE01B68268A586879
:1087B00022680168A389CDF800E001968C680F4912
:1087C000A047E4E753F8041C481E002943F8040CB2
:1087D000E2DC104605A93DF08BF9DDE753F8042CE7
:1087E000511E002A43F8041CC7DC02A93DF080F9A1
:1087F000C3E700BF6C0A0010F8020010585B0500C8
:1088000010B504463DF081FB204610BD08B5837CC1
:108810000BB9C37C43B90749002203233DF0AAF8F2
:10882000013018BF012008BD4068003018BF01208A
:1088300008BD00BFE45B050010B50123044641609C
:108840000846E3743EF016FAA060204610BD00BF53
:1088500001228160C2747047837C10B504461BB945
:108860000123C3743DF05DFB204610BD0022026071
:1088700042608260C2607047F8B5046900F1080682
:10888000B4420F464FF000050DD020693946036809
:108890005B6998478542B8BF054620463CF05AFEC2
:1088A000B0420446F1D12846F8BD00BFF8B5314BBF
:1088B0000446036300F1B00100F14403002243F8D1
:1088C0000C2C43F8082C43F8042C0C338B42F6D1C3
:1088D00094F8A430284A03F0F5036FF3451384F8A5
:1088E000A4304FF48C7014603CF09CFD2349244A62
:1088F0004FF41653054606F075FF256010203CF036
:1089000091FD0546FFF7ECFA284665610121FFF766
:1089100059FA206810B103685B6898470025256004
:108920001C203CF07FFD1749034600F1080201605E
:10893000026142610572C56085611349636001226D
:1089400004F130003DF080F9104A4FF2FF03D16886
:108950000B4043F0BF6343F40033D36039F0F0FAC7
:10896000032800F2D381DFE810F07601AF01540153
:10897000130000BF780A0010F802001002C009209E
:1089800003C00920F05B0500105C050000ED00E06D
:1089900042F6AA22002344F2ED116069FFF74AFA79
:1089A0004FF41651FFF748FFFFF778FEBB4B4FF42B
:1089B0008C710646186800F009FE054630463EF008
:1089C00089FBB7490346B74A284606F00BFF2560E6
:1089D0002B46002B00F09C810022134660694CF668
:1089E000DF11FFF727FA0021FFF726FFFFF70EFF41
:1089F00094F8A43080F00100002260F3000384F8B2
:108A0000A4306069134648F2AE01FFF713FA002163
:108A1000FFF712FFFFF7FAFE94F8A430002260F38C
:108A2000820384F8A4306069134643F66621FFF799
:108A300001FA94F8A4102027C1F38001FFF7FCFE8F
:108A4000FFF7E4FE94F8A430002260F3451384F8A5
:108A5000A4306069134645F68B31FFF7EBF901212D
:108A6000FFF7EAFEFFF7D2FE94F8A430002260F38D
:108A7000041384F8A4306069134642F23C61FFF7A6
:108A8000D9F90021FFF7D8FEFFF7C0FE236894F85C
:108A9000A420196860F3861284F8A42018468A6816
:108AA000904728203CF0BEFC054601F021FD2B68D4
:108AB00065629B68284698473C203CF0B3FC05461D
:108AC00001F048FEA5624FF4C2703CF0ABFC0646D4
:108AD000FEF7FCFE744A4FF2FF01D068734B014071
:108AE00041F0BF614FF0100C4FF0080E282541F403
:108AF00000311820E662D16083F801C383F802E3F5
:108B000083F8037382F8220083F8165383F818530E
:108B100093F8052345F29E51D20818BF83F80553F8
:108B2000624B93F80623D2081CBF282283F8062341
:108B30005E4B93F80723D2081CBF282283F8072333
:108B40005A4B93F80823D2081CBF282283F8082325
:108B5000002213466069FFF76DF95549FFF76CFE77
:108B6000FFF79CFD3EF0DCFA0022134660634AF2F8
:108B70005D516069FFF75EF90121FFF75DFEFFF7C8
:108B80008DFD0546606B3EF071F8A66A01463046E1
:108B900001F0A2FD2946A06A01F0BCFD28203CF0AE
:108BA00041FC054607F0A0FA2B68A5619B682846A2
:108BB000984718203CF036FC054606F02FFC2B6841
:108BC000A5609B68284698474FF4AC703CF02AFC9F
:108BD000054609F0D1FF2B68E5609B682846984759
:108BE00004203CF01FFC054600F0C4FE314B284633
:108BF0002B6025622BF0C6FD18203CF013FC0546C7
:108C000007F048FC256101203CF00CFCE0612046A7
:108C1000F8BD42F6AA22002344F2ED116069FFF785
:108C200009F94FF41651FFF707FEFFF737FD1B4B0D
:108C30004FF48C710646186800F0C8FC05463046B3
:108C40003EF048FA1C4903461C4A284606F0CAFD75
:108C500025602B46BDE642F6AA22002344F2ED1120
:108C60006069FFF7E7F84FF41651FFF7E5FDFFF7EE
:108C700015FD0A4B4FF48C710646186800F0A6FCEF
:108C8000054630463EF026FA0D4903460D4A284671
:108C900006F0A8FD25602B469BE600BF540300109C
:108CA00000C0092001C0092000ED00E000E100E063
:108CB000A0860100F8C505000AC009200BC00920E4
:108CC00002C0092003C0092042F6AA22002344F270
:108CD000ED116069FFF7AEF84FF41651FFF7ACFDE8
:108CE000FFF7DCFC1A4B4FF48C710646186800F055
:108CF0006DFC054630463EF0EDF916490346164A2E
:108D0000284606F06FFD25602B4662E6236860E684
:108D100042F6AA2244F2ED116069FFF78BF84FF496
:108D20001651FFF789FDFFF7B9FC094B4FF48C7121
:108D30000646186800F04AFC054630463EF0CAF97F
:108D400006490346064A284606F04CFD256043E6E0
:108D5000540300100FC0092010C0092002C00920D0
:108D600003C009202DE9F047954BB0B00360804661
:108D700089464FF44C4044F68A5100220DF11B0302
:108D800001F036FA08B98DF81B0040468D490122E2
:108D90003DF048F899F8A430980700F1F1809DF86B
:108DA0001B20002A40F02881190740F1BB80404673
:108DB000854904223DF036F8D9F80C30D3F800A1EB
:108DC000CDF828A0D3F8FC600B96D3F8F8000C90EF
:108DD00093F83430DB0740F1BD807C493EF052F817
:108DE0003DF008FB04460D46304678493EF04AF80F
:108DF0003DF000FB06460F46504674493EF042F8EF
:108E0000CDE90045CDE902673DF0F4FA0DF1400AE5
:108E1000CDE904016E4A5046802142F015F999F8D7
:108E2000A43004465B06404640F189806949062229
:108E30003CF0F8FF224651463CF0F4FFD9F80C40D4
:108E400094F85431032B25DD0325A36853F82560DE
:108E5000F06A3DF00FFF316A3EF014F894F83430B8
:108E60005A49DF0701D53EF00DF83DF0C3FA5A4AE2
:108E7000CDE900018021504642F0E6F85146024615
:108E800040463CF0CFFFD9F80C40013594F85431FE
:108E9000AB42DADC0DA821460AAA07F0DFFDD9F8BB
:108EA0000C300F9893F83430DE075ED547493DF01B
:108EB000E9FF3DF09FFA04460D460E9843493DF008
:108EC000E1FF3DF097FA06460F460D983F493DF009
:108ED000D9FFCDE90045CDE902673DF08BFA3C4A68
:108EE000CDE904018021504642F0AEF899F8A43053
:108EF00004465D064CBF39493949062240463CF0DC
:108F000091FF514622463CF08DFF99F8A430580657
:108F10003CD44046334903223CF084FF404630B005
:108F2000BDE8F087D9F8180007F010F9002800F024
:108F30006C8140462C4904223CF074FF3CE72B49ED
:108F400006223CF06FFF224651463CF06BFFD9F8F9
:108F50000C409FE73DF04EFA044630460D463DF08A
:108F600049FA06460F4650464AE73DF043FA0446A2
:108F70000E980D463DF03EFA06460F460D98A8E7BE
:108F800040461B4905223CF04DFF15E7D9F80C403F
:108F9000204607F017FE94F83430D90700F13B81E2
:108FA0003DF028FA134ACDE900015046802142F0F5
:108FB0004BF85146024640463CF034FFA9E700BF5B
:108FC000780A0010145C0500285C05003333CB419F
:108FD0003C5C0500505C0500585C0500685C0500C1
:108FE000885C0500905C0500305C0500605C050055
:108FF000185C0500705C05004046984904223CF06E
:1090000011FFD9F80C0007A907F0FCFCD9F80C00F7
:10901000C36933B1036A07A9143001229847D9F80C
:109020000C0090F834300798DA0700F1DA803DF050
:10903000E1F9044608980D463DF0DCF9064609982A
:109040000F46CDE90045CDE902673DF0D3F90DF1BA
:10905000400ACDE90401824A5046802141F0F4FFE4
:1090600099F8A43004465B06404640F1D8807D491B
:1090700006223CF0D7FE224651463CF0D3FED9F8FA
:109080000C4094F85431032B25DD0325A36853F8D5
:109090002560F06A3DF0EEFD316A3DF0F3FE94F894
:1090A00034307149DF0701D53DF0ECFE3DF0A2F907
:1090B0006E4ACDE900018021504641F0C5FF51467E
:1090C000024640463CF0AEFED9F80C40013594F81B
:1090D0005431AB42DADC099E079B089D0AA8214661
:1090E0000DAA0D960F930E9507F0B8FCD9F80C3029
:1090F0000C9893F83430DE0740F1A5805A493DF0D2
:10910000C1FE3DF077F904460D460B9856493DF0F7
:10911000B9FE3DF06FF906460F460A9852493DF0F8
:10912000B1FECDE90045CDE902673DF063F94C4A57
:10913000CDE904015046802141F086FF99F8A43022
:1091400004465D06404675D5494906223CF06AFE54
:10915000514622463CF066FED9F818304549186A57
:109160003DF0DCFDD9F80C3093F83430D90702D546
:109170003D493DF087FE3DF03DF93F4ACDE9000114
:109180008021504641F060FF5146024640463CF087
:1091900049FED9F80C300024D3F840013DF02AF9FB
:1091A000364ACDE900018021504641F04DFF51463D
:1091B000024640463CF036FE21460DAB224643F6C1
:1091C00019300D9401F014F800283FF4A2AE0D9868
:1091D00000283FF49EAE19F013F93DF00BF9284A30
:1091E000E1E621493DF04EFE3DF004F904460D460E
:1091F00008981D493DF046FE3DF0FCF806460F4636
:10920000099819493DF03EFE1BE740461D490322DF
:109210003CF008FEF5E614493DF034FEC0E61A497C
:1092200006223CF0FFFD224651463CF0FBFDD9F8FA
:109230000C4050E7154906223CF0F4FD5146224609
:109240003CF0F0FD65E63DF0D5F804460B980D4680
:109250003DF0D0F806460F460A9862E7205C05000C
:109260003C5C0500505C05003333CB41585C050085
:10927000685C050000007042705C05007C5C0500C5
:10928000945C0500385C0500605C0500885C0500A6
:1092900008B50B6808469B68984708BD2DE9F04F54
:1092A000072983B08B46824690463CD00123019328
:1092B0000BEB4B0292000AF13801881846688C5873
:1092C000B4421CD01F4F07EBCB02556805F00109D3
:1092D0006D1006E0284457F83B2041469047A642CF
:1092E0000DD054F8040BB9F1000FF3D0415957F8E1
:1092F0003B2028448A5841469047A642F1D1BBF111
:10930000070F02D003B0BDE8F08F9AF8A4309B0796
:1093100002D5019B002BF5D1DAF80C0003B0BDE8B3
:10932000F04F07F031BE90F8A420D8F1010138BF0A
:10933000002161F3410280F8A420806906F006FF55
:109340000190B5E7505D050001EB410138B53830BB
:109350008B00C5186C68C058A0420DD003689342BA
:1093600018BF031D03D108E00168914205D0A34254
:10937000184603F10403F7D138BD011D8C4206D015
:10938000631A9A1003D0920041F078FB6C68043C99
:109390006C6038BD70B50C46064609B90AE02C462B
:1093A0003046E168FFF7F6FFA568204600F02AFA8C
:1093B000002DF4D170BD00BF054B10B5044640F838
:1093C000043BE168FFF7E6FF024B2046236010BD37
:1093D000F05B0500B85E0500074B10B5044640F889
:1093E000043BE168FFF7D6FF044B2046236000F002
:1093F00009FA204610BD00BFF05B0500B85E05000D
:10940000F8B5426803680446D31A9B100F4605D08E
:109410005A00934226D96FF0030600E00426304636
:109420003CF000F8054694E809001B1A9B109A00CE
:109430003968AF1807D045F8231094E809001B1AC3
:109440009B109A00AF1823B10146284641F016FB45
:109450002068043708B100F0D5F92E44A66084E8EE
:10946000A000F8BDB2F1804FD5D2DE00D7E700BF33
:1094700000B501EB4101383000EB810043688168A1
:1094800083B08B42019207D00BB11A60436804335A
:10949000436003B05DF804FB01A9FFF7B1FFF8E7F3
:1094A000F0B4104BDFF854C00F4F104E00225CF8A0
:1094B0000200B9581C6941EA000524EA05041C6150
:1094C0005C699861B4500432142AD96103F1200315
:1094D000EDD107490748084B052208601A60F0BC27
:1094E000704700BF00C0092010030010FC020010EC
:1094F0002403001080C009203C0300102803001042
:10950000F0B4114ADFF858C0104F114E00235CF838
:109510000340F9581569F0582143043325EA010541
:1095200001EA0004142B21EA000115619461D16164
:1095300002F12002EBD107490748084B05220860D9
:109540001A60F0BC704700BF00C00920280300105B
:10955000FC0200102403001080C009203C0300100E
:109560001003001004280AD81F2908D8012202FA83
:1095700001F1034B53F820200A4343F820207047A1
:109580002803001004280AD81F2908D8012202FA4B
:1095900001F1034B53F820200A4343F82020704781
:1095A00010030010F0B4084C002725684FEA122C75
:1095B000416002818F70CF7081F801C00A70056030
:1095C0002060F0BC704700BF400300108B0718BF3D
:1095D00021F003012DE9F00118BF0431456801F1C4
:1095E000040C1FFA8CFC2B4610E093F801809A784B
:1095F00041EA082141EA024141EA046161450A4623
:109600001EDA018913446A18934215D8DA7819785A
:10961000D70902F07F041646E7D05E789C7841EACD
:10962000062141EA044102F07F0241EA0262018917
:1096300013446A189342E9D90020BDE8F00170474D
:1096400046F080068C45DE7027DA03EB0C02D478F6
:10965000CCEB010167F3C71404F08004C1F3066585
:109660002543C1F30726C1F3074403F80C10D57056
:1096700056709470DC782CF0004C04F080040021CB
:109680004FEA1C2583F800C05D70DC709970446857
:109690000189121B8A4200DB00BEBDE8F001181DE3
:1096A000704700BF2DE9F00311F8013C11F8034C9D
:1096B00011F8042C11F8025C6FF3C71342EA04227C
:1096C00042EA054203F07F0442EA04620F1F01F8F8
:1096D000013CBB18DC78E50925D1456806895D1B8E
:1096E000B54200F38D80BE5C93F801C09D7846EAD8
:1096F0000C2343EA054304F07F0443EA046411F8B1
:10970000015C2244C2F3066325F07F051D43C2F3CA
:109710000724C2F3074301F8042C01F8015C01F8A7
:10972000034C01F8023C466833787578B278F478D7
:1097300043EA052343EA024304F07F0443EA046456
:10974000324616E004891A46A54206EB040C54DAA8
:109750001D7893F8019093F80280DC7845EA09259A
:1097600045EA084504F07F0455EA046445D06345A2
:1097700043D21319951BBB422544E3D1D378DE09AC
:10978000C3F3C01539D111F8046C11F8039C11F81A
:10979000028C11F801CC46EA092646EA08460CF08C
:1097A0007F0C46EA0C66344423F07F08C4F3066C51
:1097B000C4F30726C4F307432B432C4348EA0C0C9D
:1097C0002E4382F803C056709370147011F8043C55
:1097D00011F8032C11F8024C11F8011C43EA022283
:1097E000436842EA044201F07F0142EA0161FB1A48
:1097F00002890B44934200DB00BEBDE8F0037047D2
:1098000000BE70E7084B01461B684BB15A68914295
:10981000FAD3188902449142F6D21846FFF742BFA4
:10982000084637F035B900BF400300102DE9F04F6E
:109830000A68446880469568084683B00F46234608
:10984000B8F8082024494FF00009A847DFF898B07D
:10985000D8F80460CA4602E0042D33D92C44E278DB
:109860003B68D2091D4A9D6808BF5A46009260783D
:109870002378A178E27843EA002343EA014302F027
:109880007F0243EA02620192A31B15492246384631
:10989000A84721786578E378A27841EA0525D8F8C9
:1098A000046045EA024503F07F0245EA0265DB09F0
:1098B000C6EB0402B8F808302A4408BFA9449A420B
:1098C000AA44C9DB396852468C684B46384605497C
:1098D000A04703B0BDE8F08FB05C0500A05C0500B8
:1098E000D05C0500F45C0500A85C05004368F0B49A
:1098F00005891C46002002E0042A14D91344D978B3
:109900005F78CA091A789E7842EA072201F07F013F
:1099100042EA064242EA0162C4EB0301114408BF75
:109920008018A942E8DBF0BC704700BF704700BF59
:10993000704700BF704700BF704700BF704700BF4F
:10994000704700BF704700BF704700BF704700BF3F
:10995000704700BF014B0360704700BF205D0500EA
:1099600010B5034B04460360FFF74CFF204610BDC3
:10997000205D0500014B0360704700BF205D0500BE
:10998000024B02461868FFF773BD00BFF8020010D3
:1099900010B44379002B2FD103790F2B19D8022251
:1099A0005B0002FA03F3504A0124116C0B43136469
:1099B0000379116CA34004FA03F321EA030313644F
:1099C0004379CBB903790F2B03D800205DF8044B02
:1099D000704702225B0002FA03F3434A0124516CF0
:1099E0000B4353640379516C103BA34004FA03F317
:1099F00021EA030353644379012B1DD0022B48D085
:109A0000032B5BD0042BE0D103790F2BDDD95B0056
:109A100002229A40344B0124596E0A435A66027955
:109A2000596E103AA24004FA02F221EA0202002022
:109A30005A665DF8044B704702790F2A14D8022148
:109A4000520001FA02F228498C6C22438A6404799C
:109A50008A6C6400A34022EA03038B644379012BE0
:109A6000CCD102790F2AB0D90223520003FA02F2B4
:109A70001D4B0124D96C0A43DA640279D96C103A7F
:109A8000A24004FA02F221EA0202DA644379022BCC
:109A9000B6D102790F2A98D852009340124A012475
:109AA000116D0B4313650379116DA34004FA03F3A1
:109AB00021EA030313654379032BA3D103790F2B09
:109AC00083D95B0002229A40074B0124D96D0A43D7
:109AD000DA650279D96D103AA24004FA02F221EA5D
